:100000000C9453000C947B000C947B000C947B00AC
:100010000C947B000C947B000C947B000C947B0074
:100020000C947B000C947B000C947B000C947B0064
:100030000C947B000C947B000C947B000C947B0054
:100040000C94B5000C947B000C944D030C9490031D
:100050000C947B000C947B000C947B000C947B0034
:100060000C947B000C947B0001020408102040805B
:1000700001020408102001020408102004040404F2
:100080000404040402020202020203030303030342
:1000900000000000250028002B00000000002400C4
:1000A00027002A004C0411241FBECFEFD8E0DEBF8A
:1000B000CDBF11E0A0E0B1E0EEE9F9E002C00590AB
:1000C0000D92A231B107D9F721E0A2E1B1E001C060
:1000D0001D92A73CB207E1F710E0C6EAD0E004C0E9
:1000E0002297FE010E94C904C43AD107C9F70E94B1
:1000F000AE020C94A2040C94000040E855E260E0CB
:1001000070E08DE191E00E94CB0361E08DE00E9400
:10011000830160E08EE00E94830160E08FE00E9436
:10012000830160E080E10E94830160E081E10E9440
:10013000830160E082E10E94830160E083E10C942E
:1001400083018EE00E94BC01909313018093120101
:100150004AE050E0BC018DE191E00E94980264EF1A
:1001600071E080E090E00C9422011F920F920FB694
:100170000F9211242F933F938F939F93AF93BF932D
:100180008091150190911601A0911701B09118016D
:100190003091140123E0230F2D3720F40196A11D87
:1001A000B11D05C026E8230F0296A11DB11D2093A5
:1001B00014018093150190931601A0931701B09339
:1001C00018018091190190911A01A0911B01B09121
:1001D0001C010196A11DB11D8093190190931A0174
:1001E000A0931B01B0931C01BF91AF919F918F9180
:1001F0003F912F910F900FBE0F901F9018953FB712
:10020000F8948091190190911A01A0911B01B0916D
:100210001C0126B5A89B05C02F3F19F00196A11D12
:10022000B11D3FBF6627782F892F9A2F620F711D4E
:10023000811D911D42E0660F771F881F991F4A9507
:10024000D1F70895CF92DF92EF92FF92CF93DF9391
:100250006B017C010E94FF00EB01C114D104E10499
:10026000F10479F00E94FF006C1B7D0B683E734027
:10027000A0F381E0C81AD108E108F108C851DC4FA9
:10028000ECCFDF91CF91FF90EF90DF90CF9008956A
:10029000789484B5826084BD84B5816084BD85B561
:1002A000826085BD85B5816085BDEEE6F0E0808128
:1002B00081608083E1E8F0E0108280818260808349
:1002C000808181608083E0E8F0E0808181608083CC
:1002D000E1EBF0E0808184608083E0EBF0E08081FE
:1002E00081608083EAE7F0E08081846080838081A0
:1002F0008260808380818160808380818068808348
:100300001092C1000895CF93DF9390E0FC01E8596B
:10031000FF4F2491FC01E458FF4F8491882349F159
:1003200090E0880F991FFC01E656FF4FA591B4910C
:1003300080579F4FFC01C591D4919FB7611108C0B0
:10034000F8948C91209582238C93888182230AC013
:10035000623051F4F8948C91322F309583238C9332
:100360008881822B888304C0F8948C91822B8C9393
:100370009FBFDF91CF9108958E3008F08E50877027
:100380002091000190E4299F90011124822B8093F9
:100390007C0080917A00806480937A0080917A005A
:1003A00086FDFCCF809178002091790090E0922B1F
:1003B0000895CF92DF92EF92FF920F931F93CF9306
:1003C000DF936C017A01EB01E60EF71E00E010E00E
:1003D000CE15DF0561F06991D601ED91FC91019098
:1003E000F081E02DC6010995080F191FF1CFC80152
:1003F000DF91CF911F910F91FF90EF90DF90CF9001
:1004000008956115710581F0DB010D900020E9F779
:10041000AD0141505109461B570BDC01ED91FC9198
:100420000280F381E02D099480E090E00895DC01E2
:10043000ED91FC910190F081E02D09940F931F93B1
:10044000CF93DF93EC016DE00E9417028C016AE00C
:10045000CE010E941702800F911FDF91CF911F9153
:100460000F9108958F929F92AF92BF92CF92DF9299
:10047000EF92FF920F931F93CF93DF93CDB7DEB729
:10048000A1970FB6F894DEBF0FBECDBF7C01C42E7E
:10049000E52FCB01D22E19A221E02D1510F02AE074
:1004A000D22E8E010F5D1F4F8D2C912CA12CB12CC3
:1004B0006C2D7E2FA50194010E94A5048C2DD29E47
:1004C00080191124015011098A3014F4805D01C093
:1004D000895CF8018083211531054105510521F022
:1004E000C22EE32FCA01E4CFB801C7010E94010266
:1004F000A1960FB6F894DEBF0FBECDBFDF91CF91AE
:100500001F910F91FF90EF90DF90CF90BF90AF9031
:100510009F908F9008952115310541F4DC01ED91F4
:10052000FC910190F081E02D642F09940C9432022B
:100530000F931F93CF93DF93EC019A01AB0160E01F
:1005400070E00E948B028C01CE010E941E02800F7F
:10055000911FDF91CF911F910F9108950E94480143
:100560000E947D00C7E8D3E00E94A1002097E1F33C
:100570000E948703F9CFFC0124853585F901E05CF1
:10058000FF4F80819181329620813181821B930BB4
:100590008F7399270895FC0184859585FC01E05CA3
:1005A000FF4F40815181329620813181421753079C
:1005B00041F00190F081E02DE80FF91F808190E07B
:1005C00008958FEF9FEF0895FC0184859585FC01C8
:1005D000E05CFF4F4081518132962081318142178A
:1005E000530779F0A081B181A80FB91F8C912081A8
:1005F00031812F5F3F4F2F7333273183208390E06A
:1006000008958FEF9FEF0895FC0181A1882329F0C1
:10061000A489B5898C9186FFFBCF11A20895CF9351
:10062000DF93FC0126853785D901A05CBF4F8D91F2
:100630009C91119701968F739927E901CE5BDF4F4B
:100640004881598184179507D9F30D90BC91A02D4D
:10065000A20FB31F6C93A685B785A05CBF4F119600
:100660009C938E93A689B7892C9181E090E0078CAA
:1006700002C0880F991F0A94E2F7282B2C9381E07F
:1006800081A30488F589E02D80818064808381E0E6
:1006900090E0DF91CF91089508951F920F920FB6C9
:1006A0000F9211242F933F934F938F939F93EF9328
:1006B000FF938091C00082FD1CC04091C6008091D4
:1006C000C3019091C40101968F7399272091C501B0
:1006D0003091C6018217930771F0E091C301F09148
:1006E000C401ED57FE4F40839093C4018093C30132
:1006F00002C08091C600FF91EF919F918F914F9121
:100700003F912F910F900FBE0F901F9018958DE184
:1007100091E00E94BB02892B11F00C944C030895C8
:100720001F920F920FB60F9211242F933F938F9326
:100730009F93EF93FF9320917F01309180018091EF
:100740008101909182012817390731F48091C1000D
:100750008F7D8093C10014C0E0918101F0918201EE
:10076000E15CFE4F20818091810190918201019690
:100770008F73992790938201809381012093C60003
:10078000FF91EF919F918F913F912F910F900FBE0D
:100790000F901F901895CF92DF92EF92FF92CF9318
:1007A000DF93EC016A017B01411581EE5807610579
:1007B0007105F9F0EC89FD8981E090E008A002C0A4
:1007C000880F991F0A94E2F7808360E079E08DE357
:1007D00090E0A70196010E94A5042150310941092A
:1007E00051095695479537952795211580E138078A
:1007F00098F0EC89FD89108260E874E88EE190E061
:10080000A70196010E94A50421503109410951090F
:100810005695479537952795E889F9893083EA8970
:10082000FB89208319A2EE89FF89408181E090E055
:100830009C010C8C02C0220F331F0A94E2F7422B5A
:100840004083EE89FF8940819C010D8C02C0220FFC
:10085000331F0A94E2F7422B4083EE89FF894081DF
:100860009C010E8C02C0220F331F0A94E2F7422B28
:100870004083EE89FF8920810F8C02C0880F991F69
:100880000A94E2F7809582238083DF91CF91FF90D5
:10089000EF90DF90CF9008951092200110921F01E9
:1008A00088EE93E0A0E0B0E08093210190932201D4
:1008B000A0932301B093240185E091E090931E0161
:1008C00080931D0183E891E090932A018093290190
:1008D0008FE391E090932C0180932B0185EC90E0C5
:1008E00090932E0180932D0184EC90E09093300141
:1008F00080932F0180EC90E090933201809331013E
:1009000081EC90E0909334018093330182EC90E08D
:10091000909336018093350186EC90E090933801F6
:100920008093370184E08093390183E080933A011A
:1009300087E080933B0185E080933C0181E08093D8
:100940003D010895F8940C94CD04A1E21A2EAA1B3F
:10095000BB1BFD010DC0AA1FBB1FEE1FFF1FA2176F
:10096000B307E407F50720F0A21BB30BE40BF50B6C
:10097000661F771F881F991F1A9469F760957095F5
:10098000809590959B01AC01BD01CF010895EE0FBC
:0E099000FF1F0590F491E02D0994F894FFCF1D
:10099E0001000000000F03D901BB02E402CB0204E8
:0209AE00030044
:00000001FF
